:020000040800F2
:10000000F02C0020450100089D4400080D02000866
:10001000DD430008E511000801560008000000005B
:10002000000000000000000000000000BD480008C3
:10003000451200080000000097010008BF480008B2
:100040005F0100085F0100085F0100085F01000810
:100050005F0100085F0100085F0100085F01000800
:10006000491200085F0100085F010008E91100085B
:10007000F9110008091200085F0100085F0100087B
:100080005F0100085F0100085F0100085F010008D0
:100090005F0100085F0100085F0100085F010008C0
:1000A0005F0100085F0100085F0100085F010008B0
:1000B000594900085F0100085F0100085F0100085E
:1000C0005F0100085F0100085F0100085F01000890
:1000D0005F010008D15400085F01000821550008A5
:1000E0005F0100085F0100085F0100085F01000870
:1000F0005F0100085F0100085F0100085F01000860
:100100005F0100085F010008694900085F010008FD
:100110005F0100085F0100085F0100085F0100083F
:100120005F0100085F0100085F0100085F0100082F
:10013000DFF80CD000F044FF004800476F100008C3
:10014000F02C00200648804706480047FEE7FEE7FF
:10015000FEE7FEE7FEE7FEE7FEE7FEE7FEE7FEE777
:100160005549000831010008EFF3108072B670475E
:1001700080F310887047324A1368012B04D04FF087
:10018000010313602F4A10602F4A11602F484FF06F
:10019000805101607047EFF3108272B62848016801
:1001A00091B14FF0000101602648016829B1EFF3D9
:1001B000098121E9F00F0068016023490968096895
:1001C000B1E8F00F81F3098882F310884EF0040E35
:1001D00070471D4908601B494FF00000086018492E
:1001E0004FF0010008601A481A49D0F8002041EA8F
:1001F0000201016015484FF0805101601648006807
:10020000006880F3088861B662B670471EF0040F7C
:100210000CBFEFF30880EFF3098020E9F00F40F8FE
:1002200004ED1EF0040F0CBF80F3088880F30988EA
:1002300000B507F099F85DF804EB4EF0040E704736
:10024000940400208C0400209004002004ED00E0C1
:1002500020ED00E00000FFFF08ED00E0202A04DBB5
:10026000203A21FA02F00021704721FA02F3D0402F
:10027000C2F120029140084319467047A0F14101A4
:10028000192900D82030704740EA01039B0703D0AA
:1002900009E008C9121F08C0042AFAD203E011F8C5
:1002A000013B00F8013B521EF9D27047D2B201E087
:1002B00000F8012B491EFBD270470022F6E710B56B
:1002C00013460A4604461946FFF7F0FF204610BDC4
:1002D000421C10F8011B0029FBD1801A704710B591
:1002E000002200E0521C835C8C5CA34201D1002BF5
:1002F000F8D1D8B2E1B2401A10BD30B505460020A1
:10030000034600E05B1C934205D2EC5CC85C201AFB
:1003100001D1002CF6D130BD2DE9FF4F087883B014
:100320009946FF2805D0491C2D2804D00024002020
:1003300008E000200BE00124F9E700EB800003EB6C
:100340004000491C0B78FF2BF7D104B14042002339
:100350000293147819461D462D2C01D02B2C04D164
:10036000521C2D2C13D000240294AA461478FF2C82
:100370000FD00A25A3FB057801FB05814FF0000C87
:1003800003FB0C11521CE3194AEB0101EEE70124B7
:10039000EAE7814453EA010002D019F5C87F06DA82
:1003A00003980021C0E9001107B0BDE8F08F0025D7
:1003B000AE4E2F46DFF8B882184600F0DDFDCDE9DD
:1003C0000001B9F1000002DAC9F1000400E00446BE
:1003D0000023A74A1AEB030B42EB045A12E0E00792
:1003E00007D02A4633463846414600F0B4FA07465D
:1003F00088462A4633461046194600F0ACFA0546B0
:100400000E466410002CEAD1DDE90001B9F1000FBD
:100410005A46534606DA00F010FB3A46434600F0CF
:100420000CFB05E000F097FA3A46434600F093FAD9
:10043000029A0AB181F00041039AC2E90001B3E7D0
:100440002DE9FF4F1F468DB0D7E901464FF0FF3829
:100450002E2045464FF000090B90B9696D1C0E988F
:100460008847396A824688470028F6D1BAF1FF3FAB
:100470000AD024F4D064002E11DDBAF12B0F08D07D
:10048000BAF12D0F0BD102E0404611B08DE744F4D4
:100490008064B9696D1C0E9888478246761E69464D
:1004A000600501D52D2000E02B208DF8000001F122
:1004B000010B0DF1200809E0B9696D1C0E98884701
:1004C00082460F9844F40074761E0560002E02DD0B
:1004D000BAF1300FF0D00B998A453ED144F0800438
:1004E00006E00F99681CA9F1010944F40074086042
:1004F000B9696D1C761E0E98884782463028F0D068
:100500002BE00B998A4505D1200603D444F08004E2
:10051000761E18E0504605F07DFA08B30DF1130180
:10052000761E44F400748B4508D2AAF130000BF813
:10053000010B200607D5A9F1010003E0200602D433
:1005400009F101008146A00502D50F99681C0860D9
:10055000B9696D1C0E9888478246002ED1DC53E0A5
:10056000002E51DDBAF1650F02D0BAF1450F4BD123
:10057000A00549D5B9696D1C24F44074761E0E9807
:1005800088478246002E0CDD2B2804D0BAF12D0FAF
:1005900007D144F48074B9696D1C0E98884782466F
:1005A000761EE00501D52D2100E02B2108F8011B66
:1005B000CDF82C8021E00DF12901761E44F4007461
:1005C00088450CD2AAF1300010F0FF0088F8000036
:1005D00002D10B99884509D908F1010806E0E00528
:1005E00001D5244801E042F20F708146B9696D1CC3
:1005F0000E98884782460F980560002E04DD50460D
:1006000005F008FA0028D6D1F9690E988847FF202E
:100610008BF8000088F800000020069007904B46F9
:100620006A4608A906A8FFF777FEA00502D46FF076
:1006300001002AE714F0240F0AD0E00714D1DDE905
:1006400006123868031D3B600068C0E900120BE029
:10065000DDE9060100F0F6FA0146E00704D138684A
:10066000021D3A600068016028460EE70000144051
:100670000000F03FF1D8FFFFF0B480EA0102D40F90
:100680004200B2EB410F02D20246084611464A0030
:1006900042D0C30DDDB2C1F3C752AD1A202D35DAF9
:1006A000C1F3160141F4000204B15242C5F1200623
:1006B00002FA06F12A411044B3EBD05F23D0C4B153
:1006C000012DA0EBC35009DCF0BC4FF0004202EA60
:1006D000C352DBB200F5000000F0C3BB400000F1E4
:1006E000807000EBC350A0F1807040EAD1704900E7
:1006F00009E0490841EAC071A0EBC35000F50000D1
:10070000400800EBC350F0BC00F0A2BB61420122E4
:1007100002EB4101001BF6E7F0BC704781F000419D
:10072000AAE780F00040A7E780EA010210B502F0D6
:100730000043400022D04A001FD0010E01EB12619D
:10074000C0F35600C2F3560240F4000042F4000227
:10075000A0FB022000047F39140400D0401C50EAA2
:10076000124001D44000491EC2B20C0604EBD01066
:10077000401C4008802A02D003E0002010BD20F079
:100780000100002900DA0020184310BD30B480EACF
:10079000010202F0004530F0004221F0004013D089
:1007A00090B1C30DD40DC2F31601C0F31600E41AC4
:1007B00041F4000140F400027D34914201D3641CF5
:1007C00000E04900002C02DA30BC002070474FF4F2
:1007D00000000023914201D3891A034340084FEAE5
:1007E0004101F7D151B1914202D14FF0004105E0F2
:1007F00002D24FF0010101E06FF0010103EBC450A0
:10080000284430BC00F024BB2DE9FE4F804681EA2D
:100810000300C00F0C46009021F0004123F000457A
:10082000B8EB0200A94105D24046214690461C463D
:100830000B46024623F00040104347D0270DC7F374
:100840000A00C3F30A510290401A019040286BDA63
:10085000C3F3130040F4801B0098924620B100239C
:10086000D2EB030A63EB0B0B01985946C0F140022F
:10087000504600F05EFA06460D4650465946019A2B
:1008800000F066FA10EB08006141002487EA11527B
:1008900084EAE7731A4340D0009A62B3019A012AAE
:1008A0004FEA075215DC001B61EB02014FF00042DA
:1008B00002EA0752CDE90042001C41F580113246A0
:1008C0002B4600F00BFB03B0BDE8F08F40462146FD
:1008D000F9E7001B61EB0201001C41F580130018D1
:1008E0005B412018A2F5001747EB030140EAD570E1
:1008F000B6196D4111E06D084FEA360645EAC0753C
:100900004FEA0752001B61EB0201001C41F5801108
:1009100049084FEA30000019514132462B4603B0D6
:10092000BDE8F04F00F0CBBA009801224000002350
:10093000D0EB020263EBE073009821464FEAE074CB
:10094000B8EB000061EB0401E9E783F000435BE7EB
:1009500081F0004158E72DE9FE4F81EA030404F0DD
:10096000004421F0004100944FF0000B23F00043BD
:1009700050EA01045ED052EA03045BD0C3F30A5488
:10098000C1F30A552C44A4F2F3340194A0FB0254A1
:10099000C1F3130141F48011C3F3130343F4801333
:1009A00001FB024400FB034E840A970A44EA815487
:1009B00047EA8357A4FB076802958D0A05FB078564
:1009C0004FEA932C04FB0C542705029D4FEA06586E
:1009D00047EA1637B5EB08056EEB070C870E920E4B
:1009E00047EA811742EA8312A7FB0201B6EB0B012B
:1009F00064EB00042B0D43EA0C335E1844EB1C50EF
:100A0000DA465146E7FB0201C5F313044FEA0B3304
:100A100043EA14534FEA0432019C43EA0603A4F16B
:100A20000C040294009CCDE900B400F057FA03B026
:100A3000BDE8F08F00200146F9E72DE9F04D81EA8D
:100A4000030404F0004B21F0004514464FF0000A67
:100A500023F0004150EA050220D054EA01021DD0E3
:100A6000C5F30A570246C5F31303C1F31300C1F3DC
:100A70000A5640F4801543F48013A7EB0608101BB8
:100A8000D64608F2FD3873EB050002D308F10108E1
:100A900001E092185B41B8F1000F03DA0020014633
:100AA000BDE8F08D00204FF48011064684460EE02C
:100AB000171B73EB050705D3121B63EB05030643F6
:100AC0004CEA010C49084FEA300092185B4150EAA9
:100AD0000107EDD152EA030012D082EA040083EA52
:100AE0000501084305D0101BAB4106D201220023AB
:100AF00006E000224FF0004302E06FF001025310C5
:100B00001AEB06004CEB085110EB0A0041EB0B010D
:100B1000BDE8F04D00F0D3B9C10F80EAE0700844A1
:100B2000CA079623002100F09CB9962300221146A3
:100B300000F097B90EB540F2334102910021CDE9A2
:100B400000110A460B4600F0C9F903B000BD00F0E1
:100B5000004220F00040C10DC0F3160040F4000038
:100B60007F2901DA00207047962903DCC1F1960144
:100B7000C84001E096398840002AF4D040427047CE
:100B800070B5C1F30A5201F000450024C1F313010E
:100B900040F2FF3341F480119A4201DA002070BD27
:100BA00040F233439A42A2F2334203DC5242FFF74F
:100BB00055FB00E090402C43F1D0404270BD00F066
:100BC000004230F000400AD0C10D01F56071C0F361
:100BD000160042EA0151C208400711437047002045
:100BE0000146704730B5041E71F1000404DB4FF07C
:100BF0000044404264EB0101141E73F1000405DB64
:100C00001C464FF00043524263EB04038B4208BF83
:100C1000824230BD30B5041E71F1000404DB4FF098
:100C20000044404264EB0101141E73F1000405DB33
:100C30001C464FF00043524263EB0403994208BF45
:100C4000904230BD01F0004330B421F0004150EA41
:100C5000010206D00A0DA2F56072C1F31301002A49
:100C600002DC30BC00207047440F44EAC104C100DC
:100C7000E01830BC00EBC25000F0EAB8002801DBFD
:100C8000C0F10040002901DBC1F100418142704701
:100C9000002801DBC0F10040002901DBC1F1004167
:100CA0008842704730B50B460146002020220124BF
:100CB00009E021FA02F59D4205D303FA02F5491B2A
:100CC00004FA02F52844151EA2F10102F1DC30BD40
:100CD0002DE9F05F0546002092469B468846064671
:100CE000814640241BE02846414647462246FFF7FE
:100CF000B5FA53465A46C01A914110D311461846C8
:100D0000224600F016F82D1A67EB01084F462246DE
:100D10000120002100F00DF817EB00094E41201EC4
:100D2000A4F10104DFDC484631462A464346BDE8CB
:100D3000F09F202A04DB203A00FA02F100207047DD
:100D40009140C2F1200320FA03F319439040704709
:100D5000202A06DBCB17203A41FA02F043EAE0737F
:100D600006E041FA02F3D040C2F12002914008436C
:100D700019467047426842B1016811F8013B23B13E
:100D8000521EC0E90012184670470121C160881E3A
:100D9000704742685AB1C368016843B983688B429F
:100DA00005D0491E521CC0E90012002070474FF0C8
:100DB000FF3070470FB4002300B589B00CA9009133
:100DC0000B996FF00042CB601E4B06931E4B0793AE
:100DD0000423CDE901321D4A089202466B460020E9
:100DE000FFF72EFB09B05DF814FB70B586B0064620
:100DF0004FF0FF300091CDE90101002015460C466F
:100E000004903246694604A8FFF7D4FF02460498CE
:100E1000211825B108B1084600E020462860049852
:100E200000280DD0002A02DD0098884208D0081B57
:100E30000094CDE901043246694604A8FFF7BAFFE1
:100E400006B070BD750D0008930D0008E50F000891
:100E50000029A8BF7047401C490008BF20F00100CE
:100E6000704710B4B0FA80FC00FA0CF050EA0104AC
:100E700004BF10BC704749B1CCF1200421FA04F43E
:100E800011FA0CF118BF012121430843A3EB0C0117
:100E9000CB1D4FEA00614FEA102042BF002010BC7A
:100EA000704700EBC35010440029A4BF10BC70472A
:100EB000401C490008BF20F0010010BC704710B56D
:100EC000141E73F1000408DA401C41F1000192186D
:100ED0005B411A4301D120F0010010BD2DE9F04D16
:100EE00092469B4611B1B1FA81F202E0B0FA80F26B
:100EF00020329046FFF71DFF04460F4640EA0A00E5
:100F000041EA0B0153465A46084313D0114653EAAF
:100F1000010019D0C8F140025046FFF79FF905467D
:100F20000E46504659464246FFF703FF084305D098
:100F3000012004E020463946BDE8F08D002005433D
:100F400046EAE0762C4337430A986305E40AA0EBAF
:100F500008000022FD0A44EA47540A3002D5002066
:100F60000146E9E7010510196941DDE90845001965
:100F70006941BDE8F04DA2E70EB540F2334202925E
:100F80000022CDE900221346FFF7A8FF03B000BD01
:100F9000C1F30A52C1F3130140F2FF3341F480114F
:100FA0009A4202DA00200146704740F233439A42E7
:100FB000A2F2334202DC5242FFF750B9FFF7B9BE4A
:100FC000064C074D06E0E06840F0010394E8070096
:100FD00098471034AC42F6D3FFF7AEF8A48C000863
:100FE000C48C0008C0B24FF4F05100F001B800000A
:100FF0007F2801D9002208E0064A02EB5002C00710
:10100000127800D1120902F00F020120904008402E
:1010100070470000548C000870B58C1810F8015B04
:1010200015F0070301D110F8013B2A1106D110F881
:10103000012B03E010F8016B01F8016B5B1EF9D185
:101040002B0705D40023521E0DD401F8013BFAE70B
:1010500010F8013BCB1A921C03E013F8015B01F876
:10106000015B521EF9D5A142D8D3002070BD10B546
:1010700007F066F8002010BD70B504460025206812
:10108000806800F0010018B32068806820F001003B
:101090002168886001F0AEF8054613E001F0AAF877
:1010A000401B02280ED92068806800F0010048B17A
:1010B000A06A40F01000A062E06A40F00100E06227
:1010C000012070BD2068806800F001000028E5D193
:1010D0000020F6E770B505466C6AA06A00F0500083
:1010E000E0B9A06A40F40070A0622068806800F453
:1010F0006020B0F5602F0DD1207B58B9A06A20F494
:101100008070A062A06A00F4805018B9A06A40F014
:101110000100A062204600F057F903E0206A016B4D
:101120002846884770BD70B505466C6AA06A40F0D5
:101130004000A062E06A40F00400E062204600F057
:1011400045F970BD70B50446656A284600F03DF962
:1011500070BD000038B504460025002000902068CE
:10116000806800F0010078BB2068806840F00100D2
:1011700021688860194800681949B0FBF1F00090B7
:1011800002E00098401E009000980028F9D101F07C
:1011900031F8054619E001F02DF8401B022814D95A
:1011A0002068806800F0010078B9A06A40F0100063
:1011B000A062E06A40F00100E06200BF002084F815
:1011C000240000BF012038BD05E02068806800F0E1
:1011D00001000028DFD00020F5E700000404002013
:1011E00040420F0000BFFEE710B5024800F0CEFB02
:1011F00010BD0000DC05002010B5024800F0C6FB61
:1012000010BD00005C08002010B5024800F0BEFBD5
:1012100010BD00001808002030B590F8405001249F
:10122000AC40C56B6C60046863604468102C04D1EA
:101230000468A2600468E16003E00468A1600468D7
:10124000E26030BD7047000010B504480088401CC3
:1012500002490880042000F00FFE10BD9E0300200C
:1012600072B600BFFEE7000038B50246002300203A
:10127000009000BF92F82400012801D1022038BD5F
:10128000012082F8240000BF4868072812D21068A5
:10129000406B0C79641E04EB84051F24AC40A04312
:1012A0000D796D1E05EB85050C68AC402043146874
:1012B000606327E048680D2812D21068006B0C7933
:1012C000E41F04EB84051F24AC40A0430D79ED1FFF
:1012D00005EB85050C68AC4020431468206311E0E1
:1012E0001068C06A0C790D3C04EB84051F24AC40E7
:1012F000A0430D790D3D05EB85050C68AC402043FE
:101300001468E06208680A2812D31068C0680C7874
:101310000A3C04EB44050724AC40A0430D780A3D89
:1013200005EB45058C68AC4020431468E0600FE095
:10133000106800690C7804EB44050724AC40A04316
:101340000D7805EB45058C68AC402043146820619E
:101350000868102802D00868112827D1174C106897
:10136000A0421ED11068806800F40000F0B9106837
:10137000806840F400001468A0600868102815D147
:101380000F4800680F4CB0FBF4F000EB8000400009
:10139000009002E00098401E009000980028F9D1CB
:1013A00004E0906A40F020009062012300BF00201A
:1013B00082F8240000BF184661E7000000240140C5
:1013C0000404002040420F0070477047704700003F
:1013D0002DE9F0410446002700250026A84614B94F
:1013E0000120BDE8F081A06810B1207D00B100BFF0
:1013F000A06A30B90020E06284F82400204600F0A2
:1014000097F82046FFF738FE0746A06A00F0100064
:10141000002873D1002F7ED1A06A20F4885040F0BC
:101420000200A0623F4AD4E90001904208D1E0697D
:10143000B0F5402F02D14FF4002002E0E06900E057
:10144000E0690143207B41EA40000643A068B0F513
:10145000807F02D0A068012802D14FF4807000E0A4
:1014600000200543207D012811D1207B38B9A069D7
:10147000401E4FF4006141EA4030054307E0A06A96
:1014800040F02000A062E06A40F00100E0622068C5
:10149000406820F4694028432168486020688068DB
:1014A00021490840304321688860A068B0F5807FFA
:1014B00002D0A068012802D14FF4807000E0002023
:1014C000B0F5807F03D1208A401E4FEA0058206883
:1014D000C06A20F4700040EA08002168C8622068F1
:1014E000806812490840B04209D10020E062A06A39
:1014F00020F0020040F00100A06211E00BE0A06AC1
:1015000020F0020040F01000A062E06A40F001000C
:10151000E062012704E0A06A40F01000A062012709
:1015200038465EE7003C0140FDF7E1FFFE0E1FFF7D
:1015300010B586B0044600200290039004900590F8
:101540002C492068884253D100BF2B48806940F461
:101550000070294988610846806900F40070019094
:1015600000BF00BF00BF0846806940F010008861DE
:101570000846806900F01000019000BF00BF00BF66
:101580000846806940F0040088610846806900F0E0
:101590000400019000BF00BF0120029003200390CF
:1015A00002A9164800F076FC042002900320039064
:1015B00002A9134800F06EFC12481349086000208D
:1015C00048600021104881608021C16049000161AC
:1015D00089004161202181610021C16100F0A2FBED
:1015E00008B1FFF73DFE00BF07482062446200BF1C
:1015F00006B010BD00240140001002400010014060
:101600000008014008000240DC0500202DE9F041FF
:1016100004460D461646002757492068884203D0E5
:1016200056492068884205D15348001D006800F4DF
:10163000702000E0002000287ED100BF94F8240034
:10164000012802D10220BDE8F081012084F82400A5
:1016500000BF2046FFF77EFD0746002F6DD1A06A30
:1016600040F60161884340F48070A06243492068DD
:10167000884209D14048001D006800F4702008B974
:10168000012002E0002000E0012078B1A06A20F4EF
:101690008010A0622068406800F4806000B3A06AF7
:1016A00020F4005040F48050A06219E0A06A40F499
:1016B0008010A06230492068884203D02F492068FA
:1016C000884205D12C48001D006800F4806000E0CD
:1016D000002028B1A06A20F4005040F48050A0629D
:1016E000A06A00F4805020B1E06A20F00600E062B9
:1016F00001E00020E06200BF002084F8240000BF69
:101700001F48216A88621F48216AC8621E48216AF0
:1017100008636FF00200216808602068806840F468
:10172000807021688860226802F14C0133462A46A5
:10173000206A00F03DFB01E01AE014E020688068B8
:1017400000F46020B0F5602F06D12068806840F476
:10175000A000216888600CE02068806840F4801058
:101760002168886005E000BF002084F8240000E0C4
:101770000127384667E700000024014000280140A7
:10178000D510000845110008271100080146002265
:1017900091F82100022808D00420886300BF0020AF
:1017A00081F8200000BF012070470868006820F021
:1017B0000E000B6818600868006820F001000B68D4
:1017C000186091F8403001209840CB6B58600120A0
:1017D00081F8210000BF002081F8200000BF1046E2
:1017E000E2E7000070B50446002594F821000228C5
:1017F00003D00420A0630125C1E02068006820F028
:101800000E00216808602068006820F0010021684F
:1018100008605C492068884252D95A497839206862
:10182000884201D1012047E0564964392068884246
:1018300001D1102040E0534950392068884201D13D
:10184000801539E04F493C392068884201D1801425
:1018500032E04C4928392068884202D14FF4803068
:101860002AE0484914392068884202D14FF4801098
:1018700022E044492068884201D140041CE04249EA
:101880002068884201D1012016E03F4914312068C8
:10189000884201D110200FE03B492831206888425E
:1018A00001D1801508E038493C312068884201D1D7
:1018B000801401E04FF480303349091F086051E083
:1018C000304978392068884201D1012047E02D490C
:1018D00064392068884201D1102040E029495039FC
:1018E0002068884201D1801539E026493C392068BA
:1018F000884201D1801432E0224928392068884288
:1019000002D14FF480302AE01E4914392068884201
:1019100002D14FF4801022E01A492068884201D198
:1019200040041CE018492068884201D1012016E0DB
:10193000154914312068884201D110200FE0124966
:1019400028312068884201D1801508E00E493C31D9
:101950002068884201D1801401E04FF480300949A9
:1019600080394860012084F8210000BF002084F8FD
:10197000200000BF606B10B12046616B884728468D
:1019800070BD0000800002400804024070B50446AB
:10199000E06B05682068066894F8401004208840D1
:1019A0002840002875D006F004000028FAD02068EE
:1019B000006800F0200028B92068006820F00400CA
:1019C00021680860D5492068884254D9D3497839BC
:1019D0002068884201D1042049E0D0496439206858
:1019E000884201D1402042E0CC49503920688842E9
:1019F00001D100153BE0C9493C392068884202D139
:101A00004FF4804033E0C54928392068884202D12C
:101A10004FF480202BE0C14914392068884202D15C
:101A20004FF4800023E0BD492068884201D1C00402
:101A30001DE0BB492068884201D1042017E0B84965
:101A400014312068884201D1402010E0B449283187
:101A50002068884201D1001509E0B1493C31206875
:101A6000884202D14FF4804001E04FF48020AC491D
:101A7000091F086054E0A94978392068884201D1DB
:101A800004204AE0A54964392068884202D14020F8
:101A900043E04CE0A14950392068884201D100154B
:101AA0003BE09E493C392068884202D14FF4804097
:101AB00033E09A4928392068884202D14FF48020C7
:101AC0002BE0964914392068884202D14FF48000F7
:101AD00023E092492068884201D1C0041DE090496A
:101AE0002068884201D1042017E08D491431206814
:101AF000884201D1402010E089492831206888427D
:101B000001D1001509E086493C312068884202D1A4
:101B10004FF4804001E04FF48020804980394860D4
:101B2000E06A002802D02046E16A8847F4E094F891
:101B30004010022088402840002871D006F00200A2
:101B40000028FAD02068006800F0200040B9206822
:101B5000006820F00A0021680860012084F8210054
:101B60006E492068884254D96C4978392068884287
:101B700001D1022049E0694964392068884201D1D5
:101B8000202042E0654950392068884201D1401543
:101B90003BE062493C392068884202D14FF4005052
:101BA00033E05E4928392068884202D14FF4003082
:101BB0002BE05A4914392068884202D14FF40010B2
:101BC00023E056492068884201D180041DE0544931
:101BD0002068884201D1022017E051491431206861
:101BE000884201D1202010E04D49283120688842E8
:101BF00001D1401509E04A493C312068884202D1B0
:101C00004FF4005001E04FF400304549091F0860CF
:101C100054E0424978392068884202D102204AE0E3
:101C200057E03E4964392068884201D1202042E0D3
:101C30003A4950392068884201D140153BE0374984
:101C40003C392068884202D14FF4005033E03349D8
:101C500028392068884202D14FF400302BE02F4908
:101C600014392068884202D14FF4001023E02B4938
:101C70002068884201D180041DE0294920688842FB
:101C800001D1022017E0264914312068884201D191
:101C9000202010E0224928312068884201D14015D7
:101CA00009E01F493C312068884202D14FF40050BE
:101CB00001E04FF4003019498039486000BF00202E
:101CC00084F8200000BFA06A30B32046A16A88478C
:101CD00022E094F84010082088402840E0B106F047
:101CE0000800C8B12068006820F00E002168086074
:101CF00094F8401001208840E16B48600120A06307
:101D000084F8210000BF002084F8200000BF206B71
:101D100010B12046216B884770BD00008000024052
:101D2000080402400146002209B9012070471E4BF9
:101D3000086898420BD21D4B0868C01A1423B0FBE8
:101D4000F3F08000086419480838C8630AE0164BAD
:101D50000868C01A1423B0FBF3F08000086412482E
:101D60000838C863022081F821000868026843F639
:101D7000F0708243D1E901031843CB6818430B6923
:101D800018434B6918438B691843CB6918430243C6
:101D90000868026000208863012081F8210000208B
:101DA00081F8200000BFC1E708040240080002409B
:101DB0002DE9F04104460D4616461F464FF0000837
:101DC00000BF94F82000012802D10220BDE8F08174
:101DD000012084F8200000BF94F8210001282CD1B4
:101DE000022084F821000020A0632068006820F011
:101DF0000100216808603B46324629462046FFF72D
:101E00000BFAE06A30B12068006840F00E002168EB
:101E100008600BE02068006820F00400216808607A
:101E20002068006840F00A002168086020680068A7
:101E300040F001002168086006E000BF002084F83F
:101E4000200000BF4FF002084046BFE770B50446CF
:101E500000F0D0F906462546681C10B10448007809
:101E6000054400BF00F0C6F9801BA842FAD370BD3C
:101E7000000400207047000010B5044604480068C4
:101E8000204020B1024804602046FFF7F3FF10BD58
:101E9000140401402DE9F847024600239C467BE1EB
:101EA0004FF0010808FA03F4D1F8008008EA0400B2
:101EB000A0427DD1DFF8F4A2D1F80480A8EB0A0992
:101EC000D0453AD014DCB8F1030F50D009DCB8F19A
:101ED000000F31D0B8F1010F1CD0B8F1020F49D179
:101EE00020E0B8F1110F18D0B8F1120F42D11EE066
:101EF000B9F5881F25D006DCB9F5803F20D0B9F5AB
:101F0000801F37D11AE0B9F5001F18D0B9F5041FAA
:101F100030D117E0D1F80CC02DE0D1F80C8008F1D9
:101F2000040C28E0D1F80C8008F1080C23E0D1F86B
:101F30000C8008F10C0C1EE000BF00BF00BF00BF0A
:101F400000BF00BFD1F80880B8F1000F02D14FF0F8
:101F5000040C0BE0D1F80880B8F1010F03D14FF069
:101F6000080C146102E04FF0080C546103E04FF0DC
:101F7000000C00E000BF00BFFF2801D8904601E040
:101F800002F104084646FF2802D84FEA830803E01E
:101F9000A3F108084FEA88084746D6F800804FF0BA
:101FA0000F0909FA07F928EA09080CFA07F900E00D
:101FB0007AE048EA0908C6F80080D1F8048008F001
:101FC0008058B8F1805F6FD100BFDFF8E481D8F8A6
:101FD000188048F00108DFF8D891C9F81880C84681
:101FE000D8F8188008F00108CDF8008000BF00BFC5
:101FF0004FEAB9384FEA930958F829504FEA8378E5
:102000004FEA18794FF00F0808FA09F825EA080591
:10201000DFF8A081424502D14FF0000824E0DFF84C
:102020009881424502D14FF001081DE0DFF88C8114
:10203000424502D14FF0020816E0DFF884814245A4
:1020400002D14FF003080FE0DFF87881424502D15A
:102050004FF0040808E0DFF87081424502D14FF0EC
:10206000050801E04FF006084FEA83794FEA197935
:1020700008FA09F848EA0505DFF850814FEA9309A4
:1020800048F82950D1F8048008F48018B8F5801F6A
:102090000BD1DFF83C81D8F8008048EA0008DFF86F
:1020A0003091C9F800800AE075E0DFF82481D8F8A3
:1020B000008028EA0008DFF81891C9F80080D1F8FC
:1020C000048008F40018B8F5001F0ED1DFF8008175
:1020D00008F10408D8F8008048EA0008DFF8F0901A
:1020E00009F10409C9F800800DE0DFF8E48008F187
:1020F0000408D8F8008028EA0008DFF8D49009F135
:102100000409C9F80080D1F8048008F40038B8F553
:10211000003F0ED1DFF8B880A8F10408D8F800809D
:1021200048EA0008DFF8A890A9F10409C9F800807E
:102130000DE0DFF89C80A8F10408D8F8008028EAB8
:102140000008DFF88C90A9F10409C9F80080D1F8E3
:10215000048008F48038B8F5803F0ED1DFF8708035
:10216000A8F10808D8F8008048EA0008DFF8609075
:10217000A9F10809C9F800800DE0DFF85480A8F142
:102180000808D8F8008028EA0008DFF84490A9F190
:102190000809C9F800805B1CD1F8008028FA03F810
:1021A000B8F1000F7FF47CAEBDE8F8870000111095
:1021B0000010024000080140000C014000100140E6
:1021C0000014014000180140001C014008000140BB
:1021D0000804014010B5C26821EA020302EA0104C2
:1021E00043EA0443036110BD0AB1016101E00B043D
:1021F000036170470148006870470000F803002041
:102200000348006803490978084401490860704799
:10221000F80300200004002010B50848006840F0D2
:10222000100006490860032000F0A8F80D2000F017
:1022300007F800F02BF8002010BD0000002002403D
:1022400070B504460E4800784FF47A71B1FBF0F097
:102250000C490968B1FBF0F5284600F091FC08B183
:10226000012070BD102C07D200222146501E00F024
:1022700047F80548046001E00120F2E70020F0E79C
:102280000004002004040020FC03002008B500BF67
:102290001148806940F001000F4988610846806953
:1022A00000F00100009000BF00BF00BF0846C069F9
:1022B00040F08050C8610846C06900F0805000902E
:1022C00000BF00BF00BF0549486820F0E06040F053
:1022D0000070486000BF08BD0010024000000140CF
:1022E00001460846002809DB00F01F0301229A403E
:1022F00043099B0003F1E023C3F8002100BF7047AE
:102300002DE9F05F80460D461646002703F018FAC7
:10231000074639462A46334601F00700C0F1070A4E
:10232000BAF1040F02D94FF0040A01E0C0F1070A24
:10233000D14600F1040ABAF1070F02D24FF0000AA9
:1023400001E0A0F1030AD4464FF0010A0AFA09FAA3
:10235000AAF1010A0AEA020A0AFA0CFA4FF0010B82
:102360000BFA0CFBABF1010B0BEA030B4AEA0B0473
:102370002146404603F0ECF9BDE8F09F00BF00F0B5
:102380000702064B19684FF6FF031940044B0B4335
:1023900043EA0221014B196000BF70470CED00E0D9
:1023A0000000FA05F8B5044600260025207800F064
:1023B000010000286BD000274348C06900F080501E
:1023C00070B900BF4048C06940F080503E49C861C4
:1023D0000846C06900F08050009000BF00BF012790
:1023E0003A48006800F48070B0B93848006840F49A
:1023F000807036490860FFF7FDFE064606E0FFF7ED
:10240000F9FE801B642801D90320F8BD2F4800681D
:1024100000F480700028F2D02B48006A00F4407568
:102420002DB3A08800F44070A84220D02648006A4E
:1024300020F44075012026490860002008602248E9
:10244000056205F0010090B1FFF7D4FE064608E0F2
:10245000FFF7D0FE801B41F28831884201D903206A
:10246000D3E71948006A00F002000028F0D01648AF
:10247000006A20F440706168084313490862012F24
:1024800004D10846C06920F08050C86100BF2078A0
:1024900000F00200022807D10B48406820F44040B9
:1024A000A168084308494860207800F0100010280F
:1024B00007D10548406820F480006169084302495B
:1024C00048600020A1E700000010024000700040BA
:1024D0004004424270B504460D460CB9012070BD5F
:1024E0005A48006800F00700A8420ED2574800681A
:1024F00020F007002843554908600846006800F0AE
:102500000700A84201D00120E9E7207800F002008E
:1025100002281DD1207800F00400042805D14C4881
:10252000406840F4E0604A494860207800F00800C4
:10253000082805D14648406840F460504449486046
:102540004348406820F0F000A168084340494860D3
:10255000207800F0010078B36068012806D13C487B
:10256000006800F4003090B90120B8E760680228E4
:1025700006D13748006800F0007040B90120AEE78E
:102580003348006800F0020008B90120A7E730488E
:10259000406820F00300616808432D494860FFF758
:1025A00029FE064609E0FFF725FE801B41F288312F
:1025B000884202D9032092E707E02548406800F0EE
:1025C0000C006168B0EB810FEDD12048006800F08D
:1025D0000700A8420ED91D48006820F007002843D4
:1025E0001A4908600846006800F00700A84201D0B8
:1025F000012074E7207800F00400042807D1144873
:10260000406820F4E060E1680843114948602078A0
:1026100000F00800082808D10D48406820F46050F8
:10262000216940EAC1000A49486000F03FF80849C2
:102630004968C1F30311074A515CC8400649086064
:1026400006480068FFF7FCFD002048E70020024034
:10265000001002401A8B000804040020FC03002034
:1026600001480068704700000404002000B5FFF72F
:10267000F7FF04494968C1F30221034A515CC8408D
:1026800000BD0000001002402A8B000800B5FFF7D3
:10269000E7FF04494968C1F3C221034A515CC840BD
:1026A00000BD0000001002402A8B000870B5002118
:1026B0000022002400230020134D696801F00C055E
:1026C000F5B1042D02D0082D19D101E00F4819E011
:1026D0000F4DC1F38346AB5D01F4803555B10A4D12
:1026E0006D68C5F340450B4E725D084D5D43B5FB0B
:1026F000F2F402E0084D03FB05F4204602E000BFBF
:10270000024800BF00BF70BD0010024000127A00F6
:10271000088B0008188B000800093D00F8B5044636
:102720000CB90120F8BD207800F00100002878D015
:10273000F848406800F00C0004280CD0F5484068C8
:1027400000F00C00082811D1F248406800F48030F5
:10275000B0F5803F0AD1EF48006800F4003000284F
:102760005FD0606800285CD10120DBE700BF6068B3
:10277000B0F5803F06D1E748006840F48030E54975
:10278000086028E0606858B9E248006820F48030AA
:10279000E04908600846006820F4802008601AE0DC
:1027A0006068B0F5A02F0BD1DA48006840F48020B3
:1027B000D84908600846006840F4803008600AE0A4
:1027C000D448006820F48030D24908600846006888
:1027D00020F48020086000BF606888B1FFF70AFD20
:1027E000054606E0FFF706FD401B642801D90320DB
:1027F00098E7C848006800F400300028F2D010E0E4
:10280000FFF7F8FC054606E0FFF7F4FC401B6428E0
:1028100001D9032086E7BF48006800F40030002893
:10282000F2D1207800F00200022857D1B948406860
:1028300000F00C0050B1B748406800F00C000828C8
:1028400018D1B448406800F4803098B9B1480068A5
:1028500000F0020020B12069012801D0012061E7C9
:10286000AC48006820F0F800616940EAC100A9495D
:10287000086033E02069E8B10120A7490860FFF74C
:10288000B9FC054606E0FFF7B5FC401B022801D95C
:10289000032047E79F48006800F002000028F2D0BC
:1028A0009C48006820F0F800616940EAC10099493D
:1028B000086013E0002098490860FFF79BFC05467C
:1028C00006E0FFF797FC401B022801D9032029E707
:1028D0009048006800F002000028F2D1207800F053
:1028E000080008282DD1A069B8B101208B490860E3
:1028F000FFF780FC054606E0FFF77CFC401B022842
:1029000001D903200EE78348406A00F00200002846
:10291000F2D0012001F0BEFF13E000207F490860E3
:10292000FFF768FC054606E0FFF764FC401B022841
:1029300001D90320F6E67748406A00F0020000283B
:10294000F2D1207800F00400042873D100277148E8
:10295000C06900F0805070B900BF6E48C06940F097
:1029600080506C49C8610846C06900F080500090F2
:1029700000BF00BF01276A48006800F48070B0B94A
:102980006748006840F4807065490860FFF732FCD2
:10299000054606E0FFF72EFC401B642801D9032002
:1029A000C0E65F48006800F480700028F2D000BFE5
:1029B000E068012806D15748006A40F001005549F7
:1029C000086227E0E06858B95248006A20F0010028
:1029D000504908620846006A20F00400086219E0C5
:1029E000E06805280BD14B48006A40F004004949D3
:1029F00008620846006A40F0010008620AE04548A3
:102A0000006A20F00100434908620846006A20F08D
:102A10000400086200BFE068A0B1FFF7EBFB0546C9
:102A200009E0FFF7E7FB401B41F28831884202D9F9
:102A3000032077E622E03748006A00F00200002811
:102A4000EFD012E0FFF7D6FB054608E0FFF7D2FB18
:102A5000401B41F28831884201D9032062E62D48AB
:102A6000006A00F002000028F0D1012F05D12948AA
:102A7000C06920F080502749C86100BFE069C8B331
:102A80002448406800F00C00082860D0E069022863
:102A900048D1002020490866FFF7ACFB054606E058
:102AA000FFF7A8FB401B022801D903203AE619488A
:102AB000006800F000700028F2D1206AB0F5803F75
:102AC00007D11448406820F40030A1680843114938
:102AD0004860D4E9080108430E49496821F474119B
:102AE00008430C49486001200B490866FFF782FB48
:102AF000054607E03DE0FFF77DFB401B022801D9BA
:102B000003200FE60348006800F000700028F2D0B0
:102B10002FE00000001002400000424280044242C8
:102B200000700040002014490866FFF763FB05466B
:102B300006E0FFF75FFB401B022801D90320F1E507
:102B40000E48006800F000700028F2D111E0E06942
:102B5000012800D1E6E50948466806F48031206A7C
:102B6000814204D106F47011606A814201D00120D3
:102B7000D8E50020D6E500000000424200100240E7
:102B800070B504462546681EB0F1807F01D3012050
:102B90000FE0681E4FF0E02148610F214FF0FF3039
:102BA00002F0D6FD00204FF0E02188610720086187
:102BB000002070BD7047704730B502460B4600BF1D
:102BC00092F83C00012801D1022030BD012082F89A
:102BD0003C0000BF022082F83D0010684468106885
:102BE000816824F070041868044310684460144D30
:102BF0001068A84213D0134D1068A8420FD0106877
:102C0000B0F1804F0BD0104D1068A84207D00F4D87
:102C10001068A84203D00E4D1068A84205D121F0DB
:102C200080015868014310688160012082F83D00EE
:102C300000BF002082F83C0000BF00BFC5E70000D5
:102C4000002C014000340140000400400008004016
:102C5000000C004010B504460CB9012010BD94F8DA
:102C60003D0028B9002084F83C00204600F026F8FA
:102C7000022084F83D00211D206801F0ADFF0120F5
:102C800084F8460000BF84F83E0001213F20015532
:102C9000402001554120015500BF00BF012084F8AC
:102CA000420043200155442001554520015500BFF5
:102CB000012084F83D000020D0E7000038B504462C
:102CC0001F49206888420DD100BF1E48C06940F0EE
:102CD00002001C49C8610846C06900F0020000906B
:102CE00000BF2BE01849206888420DD100BF15486D
:102CF000C06940F004001349C8610846C06900F08B
:102D00000400009000BF19E010492068884215D1E6
:102D100000BF0C48C06940F008000A49C861084675
:102D2000C06900F00800009000BF00BF002202212F
:102D30003220FFF7E5FA3220FFF7D2FA38BD000063
:102D4000000400400010024000080040000C004059
:102D5000014691F83D00012801D001207047022072
:102D600081F83D00164B0868984213D0154B08684F
:102D700098420FD00868B0F1804F0BD0124B086812
:102D8000984207D0114B0868984203D0104B08684E
:102D900098420CD10868806800F00702062A0CD01F
:102DA0000868006840F001000B68186005E00868DA
:102DB000006840F001000B6818600020CEE70000BA
:102DC000002C014000340140000400400008004095
:102DD000000C0040014691F83D00012801D001207F
:102DE0007047022081F83D000868C06840F001008B
:102DF0000B68D860164B0868984213D0154B0868CA
:102E000098420FD00868B0F1804F0BD0124B086881
:102E1000984207D0114B0868984203D0104B0868BD
:102E200098420CD10868806800F00702062A0CD08E
:102E30000868006840F001000B68186005E0086849
:102E4000006840F001000B6818600020C8E700002F
:102E5000002C014000340140000400400008004004
:102E6000000C00402DE9F04104460D46002700BF4C
:102E700094F83C00012802D10220BDE8F081012035
:102E800084F83C0000BF022084F83D00206886687A
:102E900026F0770626F47F4620688660286850284A
:102EA00033D00CDC202850D004DC00284BD0102874
:102EB00051D149E0302849D040284CD139E0602830
:102EC0002DD0702807D0B0F5805F03D0B0F5005F3B
:102ED00041D10DE041E0D5E902136A68206801F0B4
:102EE000DAFE2068866846F077062068866034E05F
:102EF000D5E902136A68206801F0CDFE2068806879
:102F000040F480402168886027E0EA6869682068AA
:102F100001F0B2FF5021206801F0C8FE1DE0EA6810
:102F20006968206801F0BBFF6021206801F0BEFEE7
:102F300013E0EA686968206801F09EFF402120687C
:102F400001F0B4FE09E000BF00BF00BF296820689F
:102F500001F0ACFE01E0012700BF00BF012084F8B2
:102F60003D0000BF002084F83C0000BF384684E7E5
:102F70002DE9F04104460D4614B90120BDE8F08169
:102F800094F83D0028B9002084F83C00204600F069
:102F900051F8022084F83D002068806844F207015F
:102FA000884321688860211D206801F015FE206893
:102FB000D0F80880206886692068076A286840EA97
:102FC000080840F203308643A969A86840EA012056
:102FD000064340F60C4086434FF2F0008643E96911
:102FE000E86840EA0120064328690001296A40EAAE
:102FF0000130064327F022076969686840EA01103A
:1030000007432068C0F8088020688661206807624E
:10301000012084F8460084F83E0001213F2001553C
:10302000012084F8420043200155012084F83D002E
:103030000020A3E710B586B004460020029003905C
:10304000049005902D492068884225D100BF2C4866
:10305000806940F400602A4988610846806900F46C
:103060000060019000BF00BF00BF0846806940F0CB
:10307000040088610846806900F00400019000BFE8
:1030800000BF4FF44070029000200390049002A90A
:103090001C48FEF7FFFE2FE02068B0F1804F2BD1D7
:1030A00000BF1748C06940F001001549C8610846D3
:1030B000C06900F00100019000BF00BF00BF0846DA
:1030C000806940F0040088610846806900F00400CF
:1030D000019000BF00BF03200290002003900490E5
:1030E00002A90848FEF7D6FE002203211C20FFF7A4
:1030F00007F91C20FFF7F4F806B010BD002C0140C2
:1031000000100240000801402DE9F04304460D463E
:1031100094F83E603F20075D94F84280432010F809
:1031200004906DB9012E02D1B8F1010F02D0012037
:10313000BDE8F083022084F83E0084F8420025E0D8
:10314000042D0CD1012F02D1B9F1010F01D00120C2
:10315000EEE702213F2001554320015516E0012EE4
:1031600007D1012F05D1B8F1010F02D1B9F1010F3B
:1031700001D00120DCE7022084F83E0002213F203C
:103180000155022084F842004320015515B1042D59
:103190000CD105E001220021206801F06BFD10E058
:1031A00001220421206801F065FD0AE001220021CE
:1031B000206801F05FFD01220421206801F05AFD22
:1031C00000BF00BF2068006840F00100216808606F
:1031D0000020ADE7704710B5044620680069C0F3D1
:1031E0004000D8B12068C068C0F34000B0B16FF0B3
:1031F000020021680861012020772068806900F0C2
:10320000030018B12046FFF7E5FF05E0204600F077
:10321000F9F8204600F0ADF9002020772068006919
:10322000C0F38000D8B12068C068C0F38000B0B19E
:103230006FF004002168086102202077206880690F
:1032400000F4407018B12046FFF7C4FF05E02046A7
:1032500000F0D8F8204600F08CF900202077206894
:103260000069C0F3C000D8B12068C068C0F3C000D6
:10327000B0B16FF008002168086104202077206851
:10328000C06900F0030018B12046FFF7A3FF05E076
:10329000204600F0B7F8204600F06BF900202077B8
:1032A00020680069C0F30010D8B12068C068C0F37E
:1032B0000010B0B16FF0100021680861082020777D
:1032C0002068C06900F4407018B12046FFF782FF03
:1032D00005E0204600F096F8204600F04AF900206C
:1032E00020772068006900F0010058B12068C068AC
:1032F00000F0010030B16FF0010021680861204644
:1033000000F0B2F920680069C0F3C01058B120681D
:10331000C068C0F3C01030B16FF080002168086150
:103320002046FFF747FC20680069C0F3801058B1C1
:103330002068C068C0F3801030B16FF04000216891
:103340000861204600F091F920680069C0F3401040
:1033500058B12068C068C0F3401030B16FF0200051
:10336000216808612046FFF726FC10BD10B586B025
:103370000446002002900390049005901C492068A8
:10338000884217D100BF1B48806940F004001949EA
:1033900088610846806900F00400019000BF00BF0A
:1033A000C020029002200390059002A91248FEF767
:1033B00071FD1BE011492068884217D100BF0D48FC
:1033C000806940F008000B4988610846806900F078
:1033D0000800019000BF00BF4FF44070029002202F
:1033E0000390059002A90648FEF754FD06B010BDF3
:1033F00000040040001002400008014000080040A6
:10340000000C014070472DE9F04104460D46164678
:10341000002700BF94F83C00012802D10220BDE83B
:10342000F081012084F83C0000BF36B1042E1BD08F
:10343000082E31D00C2E5ED145E02946206801F0DF
:103440003FFC2068806940F008002168886120689E
:10345000806920F0040021688861206880692969FA
:1034600008432168886148E02946206801F060FC33
:103470002068806940F40060216888612068806964
:1034800020F480602168886120688069296940EAA9
:1034900001202168886130E02946206801F086FC1F
:1034A0002068C06940F008002168C8612068C069D0
:1034B00020F004002168C8612068C06929690843B8
:1034C0002168C86119E02946206801F0ABFC20683A
:1034D000C06940F400602168C8612068C06920F4B8
:1034E00080602168C8612068C069296940EA0120BC
:1034F0002168C86101E0012700BF00BF00BF0020B4
:1035000084F83C0000BF384689E710B504460CB982
:10351000012010BD94F83D0028B9002084F83C003B
:10352000204600F025F8022084F83D00211D206887
:1035300001F052FB012084F8460000BF84F83E00F1
:1035400001213F200155402001554120015500BF78
:1035500000BF012084F8420043200155442001555A
:103560004520015500BF012084F83D000020D0E730
:103570007047704770B504460D4615B994F83E0083
:103580000BE0042D02D13F20005D06E0082D02D1A2
:103590004020005D01E04120005D012801D00120B4
:1035A00070BD1DB9022084F83E000EE0042D03D149
:1035B00002213F20015508E0082D03D102214020BF
:1035C000015502E0022141200155012229462068CF
:1035D00001F050FB1F492068884203D01E49206833
:1035E000884201D1012000E0002028B12068406C11
:1035F00040F400402168486416492068884213D08E
:103600001549206888420FD02068B0F1804F0BD058
:1036100012492068884207D011492068884203D0A7
:103620001049206888420CD12068806800F00706A5
:10363000062E0CD02068006840F001002168086068
:1036400005E02068006840F0010021680860002063
:10365000A6E70000002C01400034014000040040B7
:1036600000080040000C004070477047704770B57C
:103670000446002520684069C0F3C01594F8410055
:10368000212817D1B5B100BF00BF2168143151E81E
:10369000001F21F080002168143141E80002002A57
:1036A000F3D100BFA06B10B1A06BFEF76FF82046FE
:1036B00001F020FD20684069C0F3801594F84200B5
:1036C000222817D1B5B100BF00BF2168143151E8DD
:1036D000001F21F040002168143141E80002002A57
:1036E000F3D100BFE06B10B1E06BFEF74FF820465E
:1036F00001F0BAFC002070BD704700002DE9F84FC2
:103700000446206805682068C668206847694FF04D
:103710000009CA4605F00F09B9F1000F0AD105F0FA
:10372000200038B106F0200020B1204601F0F5FC61
:10373000BDE8F88FB9F1000F7BD007F0010018B990
:1037400006F49070002874D005F0010030B106F442
:10375000807018B1606C40F00100606405F00400F6
:1037600030B107F0010018B1606C40F002006064F5
:1037700005F0020030B107F0010018B1606C40F0B4
:103780000400606405F0080048B106F0200010B99C
:1037900007F0010018B1606C40F008006064606CD4
:1037A000002845D005F0200028B106F0200010B117
:1037B000204601F0B2FC20684069C0F3801A606CBA
:1037C00000F0080010B9BAF1000F2CD0204601F02B
:1037D0004BFC2068406900F0400000B300BF00BF10
:1037E0002168143151E8001F21F040002168143194
:1037F00041E80002002AF3D100BFE06B50B17748E6
:10380000E16B4863E06BFDF7EDFF88B1E06B416B66
:1038100088470DE02046FFF76FFF09E009E02046EA
:10382000FFF76AFF04E02046FFF766FF00206064B0
:103830007EE7206B012877D105F01000002873D0B7
:1038400006F010000028FAD000BF00200090206889
:103850000068009020684068009000BF00BF2068AA
:10386000406900F0400000285FD0E06B00684068CD
:103870001FFA80F8B8F1000F55D0A08D404552DDF9
:10388000A4F82E80E06B8069202843D000BF00BFE1
:1038900021680C3151E8001F21F4807021680C313F
:1038A00041E80002002AF3D100BF00BF00BF216839
:1038B000143151E8001F21F001002168143141E862
:1038C0000002002AF3D100BF00BF00BF21681431FD
:1038D00051E8001F21F040002168143141E8000246
:1038E000002AF3D100BF202084F84200002020638A
:1038F00000BF00BF21680C3151E8001F21F010000B
:1039000021680C3141E80002002AF3D100BFE06BCE
:10391000FDF73CFF02206063A08DE28D801A81B22A
:103920002046FFF7A3FE03E742E0A08DE18D401A99
:103930001FFA80F8E08DD0B3B8F1000F37D000BF88
:1039400000BF21680C3151E8001F21F490702168FC
:103950000C3141E80002002AF3D100BF00BF00BFD4
:103960002168143151E8001F21F001002168143151
:1039700041E80002002AF3D100BF202084F8420071
:103980000020206300BF00BF21680C3151E8001FF8
:1039900021F0100021680C3141E80002002AF3D127
:1039A00000BF0220606341462046FFF75FFEBFE68E
:1039B00005F0800030B106F0800018B1204601F01B
:1039C0000DFDB5E605F0400030B106F0400018B13D
:1039D000204601F07FFBABE600BFA9E6C74E00081A
:1039E00010B504460CB9012010BDA06900B100E07B
:1039F00000BF94F8410028B9002084F84000204618
:103A000000F02AF8242084F841002068C06820F4DF
:103A100000502168C860204601F0FEFB2068006964
:103A200020F49040216808612068406920F02A0055
:103A3000216848612068C06840F400502168C8606F
:103A400000206064202084F8410084F842000020B7
:103A5000606300BFC8E7000010B586B004460020D0
:103A600002900390049005906149206888423FD1FC
:103A700000BF6048806940F480405E498861084624
:103A8000806900F48040019000BF00BF00BF08467D
:103A9000806940F0080088610846806900F00800ED
:103AA000019000BF00BF402002900220039003203D
:103AB000059002A95048FEF7EDF980200290002001
:103AC0000390049002A94C48FEF7E4F900BF4B496B
:103AD000486840F0E06040F00400486000BF002209
:103AE0000F212520FEF70CFC2520FEF7F9FB7DE0D9
:103AF00043492068884279D100BF3E48C06940F4FC
:103B000080203C49C8610846C06900F480200190CB
:103B100000BF00BF00BF0846806940F01000886108
:103B20000846806900F01000019000BF00BF081532
:103B30000290022003900320059002A93148FEF76D
:103B4000A9F94FF400600290002003900120049036
:103B500002A92C48FEF79EF900BF2849486820F0CA
:103B6000300040F0E06040F01000486000BF2648A0
:103B70002649086000204860002124488160802197
:103B8000C16000210161416181614FF40051C16157
:103B9000FEF7C8F808B1FDF763FB00BF1B48E06300
:103BA000446200BF18481438194908601020486062
:103BB0000021174881608021C160002101614161BD
:103BC00081614FF48051C161FEF7ACF808B1FDF797
:103BD00047FB00BF0E48A063446200BF00220121E2
:103BE0002720FEF78DFB2720FEF77AFB06B010BDDD
:103BF0000038014000100240000C0140000001406C
:103C00000048004000100140300002401808002029
:103C10005C0800202DE9F84F04460E4617469946E9
:103C20004FF0000A94F8420020284FD106B117B98E
:103C30000120BDE8F88F00206064222084F8420053
:103C400000202063FEF7D6FA8246A785E785A068A4
:103C5000B0F5805F04D1206910B90025B04602E0BC
:103C600035464FF0000829E0534600222021204627
:103C7000CDF8009001F0E2FB08B10320D9E745B987
:103C800020684068C0F30800A8F8000008F10208A6
:103C900011E0A068B0F5805F03D0A06828B9206962
:103CA00018B920684068287004E02068406800F077
:103CB0007F0028706D1CE08D401EE085E08D00289F
:103CC000D2D1202084F842000020B2E70220B0E7E1
:103CD00070B504460D46164694F8420020280BD1D4
:103CE00005B10EB9012070BD00202063324629467F
:103CF000204601F00FFBF6E70220F4E7704770471B
:103D00002DE9F84F04460E46174699464FF0000A33
:103D100094F8410020284AD106B117B90120BDE826
:103D2000F88F00206064212084F84100FEF762FAD9
:103D30008246A784E784A068B0F5805F04D120693B
:103D400010B90025B04602E035464FF000081BE0F0
:103D50005346002280212046CDF8009001F06EFBF2
:103D600008B10320DBE745B9B8F80000C0F308004C
:103D70002168486008F1020803E02878216848605B
:103D80006D1CE08C401EE084E08C0028E0D153469E
:103D9000002240212046CDF8009001F04FFB08B1F1
:103DA0000320BCE7202084F841000020B7E7022070
:103DB000B5E70000F7B50446154694F84100202801
:103DC00036D1019800B10DB90120FEBD01982062E5
:103DD000A584E58400206064212084F84100154812
:103DE000A16B88621448A16BC8621448A16B086378
:103DF0000020A16B486301AE23681A1D31682B4671
:103E0000A06BFDF7D5FF6FF040002168086000BF90
:103E100000BF2168143151E8001F41F08000216883
:103E2000143141E80002002AF3D100BF0020CCE7A2
:103E30000220CAE7035000085B500008DB4E000870
:103E40007047704710B5012202210948FEF7CCF9EE
:103E5000012211460648FEF7C7F900220121044855
:103E6000FEF7C2F9002202210148FEF7BDF910BD9C
:103E7000000C014010B5012202210748FEF7B4F9F9
:103E8000002201210448FEF7AFF901221146024841
:103E9000FEF7AAF910BD0000000C014010B5012288
:103EA00002210448FEF7A0F9002202210148FEF792
:103EB0009BF910BD000C01400EB500200090019050
:103EC00002901348134908600021124881600121C3
:103ED0000173002101754FF46021C16100200D497B
:103EE000486001210B480161FDF772FA08B1FDF746
:103EF000B7F90A2000900120019004200290694641
:103F00000448FDF7B1F908B1FDF7AAF90EBD0000AC
:103F100000240140AC05002008B500BF12484069EC
:103F200040F00100104948610846406900F0010076
:103F3000009000BF00BF00220E210B20FEF7E0F929
:103F40000B20FEF7CDF9002211460C20FEF7D8F920
:103F50000C20FEF7C5F9002211460D20FEF7D0F91E
:103F60000D20FEF7BDF908BD0010024000B585B078
:103F70000020019002900390049000BF3E488069A9
:103F800040F010003C4988610846806900F010004C
:103F9000009000BF00BF00BF0846806940F02000CD
:103FA00088610846806900F02000009000BF00BFD3
:103FB00000BF0846806940F00400886108468069B7
:103FC00000F00400009000BF00BF00BF08468069F9
:103FD00040F0080088610846806900F00800009001
:103FE00000BF00BF012243F603012448FEF7FCF89E
:103FF00000224FF480412148FEF7F6F80022042108
:104000001F48FEF7F1F843F60300019001200290EB
:1040100003900220049001A91848FDF73BFF0420FB
:104020000190184802900120039001A91348FDF760
:1040300031FF4FF480400190012002900020039056
:104040000220049001A90D48FDF724FF04200190EF
:1040500001200290002003900220049001A908484A
:10406000FDF718FF002204210820FEF749F9082077
:10407000FEF736F905B000BD00100240000C01400B
:10408000001401400000111000B58BB0242102A8DB
:10409000FCF713F90020009001901A481A490860B3
:1040A000002048600021184881604FF6FF71C16010
:1040B0000021016141618161032002900020039091
:1040C0000120049000200590062006900020079013
:1040D000012008900020099006200A9002A90A48B1
:1040E000FEF746FF08B1FDF7BBF8002000900190F5
:1040F00069460548FEF760FD08B1FDF7B1F80BB061
:1041000000BD0000002C01402006002000B58BB04F
:10411000242102A8FCF7D1F80020009001904FF074
:1041200080401949086000204860002116488160DD
:104130004FF6FF71C160002101618161032002908F
:104140000020039001200490002005900620069096
:1041500000200790012008900020099006200A9076
:1041600002A90948FEF704FF08B1FDF779F800201D
:104170000090019069460448FEF71EFD08B1FDF766
:104180006FF80BB000BD00006806002000B58DB0D0
:10419000002009900A900B900C90079008901C2129
:1041A0006846FCF78AF825482549086040F29F5088
:1041B00048600021224881606321C16000210161C3
:1041C00080218161FEF746FD08B1FDF749F84FF403
:1041D0008050099009A91A48FEF744FE08B1FDF77E
:1041E0003FF81748FFF791F908B1FDF739F80020BB
:1041F0000790089007A91248FEF7DEFC08B1FDF70A
:104200002FF860200090322001900020029004904E
:10421000002269460A48FFF7F6F808B1FDF720F8D2
:10422000042269460648FFF7EEF808B1FDF718F8D2
:104230000348FFF79BF80DB000BD000000040040EC
:10424000B006002000B58DB0002009900A900B90B8
:104250000C90079008901C216846FCF72EF8254822
:10426000254908604720486000212348816044F6C2
:104270001F61C1600021016180218161FEF7EAFCBC
:1042800008B1FCF7EDFF4FF48050099009A91A48D6
:10429000FEF7E8FD08B1FCF7E3FF1748FFF735F933
:1042A00008B1FCF7DDFF00200790089007A912482D
:1042B000FEF782FC08B1FCF7D3FF60200090642079
:1042C0000190002002900490082269460A48FFF7F6
:1042D0009AF808B1FCF7C4FF0C2269460648FFF7BC
:1042E00092F808B1FCF7BCFF0348FFF73FF80DB0A8
:1042F00000BD000000080040F806002000B587B0AF
:1043000000200390049005900690019002901548BB
:1043100015490860472048600021134881604CF22D
:104320004F31C1600021016180218161FEF792FC63
:1043300008B1FCF795FF4FF48050039003A90A4899
:10434000FEF790FD08B1FCF78BFF00200190029072
:1043500001A90548FEF730FC08B1FCF781FF07B062
:1043600000BD0000000C00404007002010B50B48C5
:104370000B4908604FF4E130486000210848816033
:10438000C16001610C21416100218161C161FFF7C0
:1043900027FB08B1FCF764FF10BD000000380140A6
:1043A0008807002010B50B480B4908604FF4E13036
:1043B0004860002108488160C16001610C214161B1
:1043C00000218161C161FFF70BFB08B1FCF748FFD9
:1043D00010BD000000480040D007002000BFFEE7ED
:1043E00070B505460C46002D0BDA01221103294851
:1043F000FDF7FAFE00224FF400612648FDF7F4FEB7
:104400000AE000224FF480512248FDF7EDFE012220
:10441000D1022048FDF7E8FE002C0BDA01229103BF
:104420001C48FDF7E1FE00224FF400511948FDF74A
:10443000DBFE0AE000224FF480411648FDF7D4FE6F
:10444000012251031348FDF7CFFE002D09DA15F1C3
:10445000630F01DA6FF0620568420F49096848632B
:1044600005E0632D00DD63250B4800684563002CE3
:1044700009DA14F1630F01DA6FF062046042064951
:104480000968886305E0632C00DD63240248006846
:10449000846370BD000C0140B006002000BFFEE741
:1044A00070B5002418E004F1B000002100F041F9DB
:1044B0000021084600F03DF90021102000F039F9F4
:1044C000002505E00121002000F033F9681CC5B289
:1044D000802DF7DB601CC4B2082CE4DB70BD10B586
:1044E0004FF44870FDF7B2FC0021AE2000F021F936
:1044F0000021084600F01DF90021102000F019F9F4
:104500000021402000F015F90021B02000F011F941
:104510000021812000F00DF90021FF2000F009F9B1
:104520000021A12000F005F90021A62000F001F9EA
:104530000021A82000F0FDF800213F2000F0F9F84C
:104540000021C82000F0F5F80021D32000F0F1F898
:104550000021084600F0EDF80021D52000F0E9F830
:104560000021802000F0E5F80021D82000F0E1F8DB
:104570000021052000F0DDF80021D92000F0D9F855
:104580000021F12000F0D5F80021DA2000F0D1F868
:104590000021122000F0CDF80021DB2000F0C9F846
:1045A0000021302000F0C5F800218D2000F0C1F876
:1045B0000021142000F0BDF80021AF2000F0B9F870
:1045C00010BD70B504460D4605F1B000002100F0A5
:1045D000B0F8102141EA1410002100F0AAF804F00C
:1045E0000F00002100F0A5F870BD00002DE9F0419A
:1045F00080460E461546002731464046FFF7E1FF4C
:1046000000240AE0124A02EB8511085D012100F046
:1046100090F8781CC7B2601CC4B2102CF2DB701C7E
:10462000C1B24046FFF7CDFF00240CE06900491CF1
:10463000074A02EB4111085D012100F07AF8781C6D
:10464000C7B2601CC4B2102CF0DBBDE8F0810000E2
:10465000140000202DE9F04707460E469046994683
:1046600000250024A8F12000C5B27F2F02DD00271D
:10467000B01CC6B2B9F1100F24D131463846FFF74D
:10468000A0FF002408E004EB0511194A505C012149
:1046900000F04FF8601CC4B2082CF4DB701CC1B2EF
:1046A0003846FFF78EFF002409E004EB05110831BE
:1046B0000F4A505C012100F03CF8601CC4B2082C89
:1046C000F3DB12E031463846FFF77BFF00240AE0B7
:1046D00005EB4501074A02EB4101085D012100F0AD
:1046E00028F8601CC4B2062CF2DBBDE8F08700009D
:1046F00018850008F08200082DE9F04104460F46B5
:104700001546984600260FE0AA5D434639462046E6
:10471000FFF7A0FF04F10800C4B2782C02DD0024EA
:10472000B81CC7B2701CC6B2A85D0028ECD1BDE8A9
:10473000F08170B504460D461DB1E0B200F0C6FF31
:1047400002E0E0B200F0ACFF70BD000000202249A2
:10475000C8604FF080400861002048618861C861EE
:104760001E4808601E484860002088601D48086296
:1047700000201D49C8604FF080400861002048615A
:104780008861C86115480860154848600020886045
:104790001448086200201549C860154808610020C7
:1047A00048618861C8611348086013484860002068
:1047B00088600C48086200201049C86008614861A0
:1047C0008861C8610E4808600E4848600020886013
:1047D0000D48086270470000A80400200000F04166
:1047E0000000A0400000C842CC040020F0040020DB
:1047F000000096440000A041CDCC4C3E14050020A2
:10480000000020416666663F000048422DE9F047FF
:1048100004460D46E560D4E90310FBF77FFF6061B5
:104820006169E069FBF728FFE061D4E90701FCF763
:104830002FFA02D2206AE0610BE0206A80F0004685
:104840003046E169FCF724FA03D2206A80F0004088
:10485000E061D4E90501FBF761FF8046A168FBF741
:1048600063FF0646E1696068FBF75EFF80466169A9
:104870002068FBF759FF81464146FBF7FDFE0746DE
:104880003146FBF7F9FEE0606069A061E068BDE8D1
:10489000F087000008B508490968C9084FF47A7222
:1048A000B1FBF2F14143009100BF00BF00994A1EE5
:1048B00000920029F9D108BD04040020704710B50A
:1048C000FDF79EFC02F088FD03F0DEFA02F094FD95
:1048D00010BD00B595B028210BA8FBF7EEFC142104
:1048E00006A8FBF7EAFC18216846FBF7E6FC012066
:1048F0000B9000040C9000200D9001200F900220DE
:104900001290C10313914FF4E01114910BA8FDF71D
:1049100005FF08B1FCF7A4FC0F20069002200790C9
:10492000002008904FF48060099000200A90022136
:1049300006A8FDF7CFFD08B1FCF792FC022000901D
:10494000800302906846FDF72DFD08B1FCF788FC56
:1049500015B000BD7047000010B50248FEF73BFCE3
:1049600010BD0000680600202DE9F0417A4800687B
:10497000406A404200B27949088079480068406A3C
:10498000404200B2774908800020734909684862B4
:104990007349096848627148B0F90000FCF7BCF837
:1049A00005467149FBF7C0FE04467049FBF7EEFE71
:1049B0006F4908606B48B0F90000FCF7ADF8074696
:1049C0006949FBF7B1FE06466A49FBF7DFFE05467B
:1049D0006949FBF7DBFE04464FF08141FBF7D6FE49
:1049E0006649086066480088664909884843664900
:1049F000088008460088FCF798F80446214663487A
:104A0000FFF704FF6249086062480088503800B22E
:104A1000614908800846B0F90000FCF77DF80446BB
:104A200021465E48FFF7F2FE5D4908605D4958483F
:104A30000068FCF72DF902D25A48554908605A49D6
:104A400053480068FCF71AF902D2574850490860E9
:104A5000544953480068FCF71BF902D251485049A9
:104A6000086051494E480068FCF708F902D24E48E8
:104A70004B4908604A48016845480068FBF74EFE0C
:104A80004A4908604648016841480068FBF7F4FD60
:104A900047490860384945480068FCF7F9F802D2F0
:104AA000354842490860434940480068FCF7E6F849
:104AB00002D240483D4908602F493D480068FCF754
:104AC000E7F802D22C483A4908603A493848006869
:104AD000FCF7D4F802D237483549086036480078E8
:104AE00060B133480068FCF732F804462F4800688C
:104AF000FCF72DF805462146FFF772FC2F48008889
:104B0000401C2E49088008460088B0F5966F1ED1DB
:104B1000002008802A4801F0BFFD2949086815498E
:104B2000FBF7FCFD2749086008460068FCF747F8DA
:104B300006464FF03332244BFBF77FFF0446FCF769
:104B400081F82249086004212148FDF743FB2148F0
:104B5000FEF741FBBDE8F08120060020D8030020CD
:104B600068060020DA0300200000A0410000A544F0
:104B7000DC030020000030410000F041E003002091
:104B8000BE030020C0030020B8030020F004002072
:104B9000AC030020BC030020B0030020140500205B
:104BA000B40300200000C8420000C8C2C8030020AF
:104BB000CC0300200000F0C1C4030020A0030020AB
:104BC000B4090020A40300203333FB3FA8030020D6
:104BD000001401404007002010B50268204B9842A5
:104BE0000ED0204B98420BD0B0F1804F08D01E4B16
:104BF000984205D01D4B984202D01D4B984203D1DC
:104C000022F070024B681A43154B98420ED0154B98
:104C100098420BD0B0F1804F08D0134B984205D08A
:104C2000124B984202D0124B984203D122F44072A8
:104C3000CB681A4322F080034C6943EA0402026005
:104C40008B68C3620B688362054B984202D0054BA8
:104C5000984201D10B6903630123436110BD000039
:104C6000002C0140003401400004004000080040D6
:104C7000000C004030B501F01F05012404FA05F3D3
:104C8000046A9C430462046A01F01F0502FA05F5F8
:104C90002C43046230BD30B50C46816821F47F415D
:104CA00042EA032525432943816030BD0A468168D5
:104CB00021F0700142F00703194381607047000042
:104CC00030B5026A056A25F001050562436884690A
:104CD00024F0700424F003040D682C4322F0020237
:104CE0008D682A43104DA84200D103E00F4DA84221
:104CF00006D100BF22F00802CD682A4322F0040248
:104D0000094DA84202D0094DA84207D123F480736F
:104D100023F400734D692B438D692B4343608461F9
:104D20004D684563026230BD002C014000340140F3
:104D300030B5026A056A25F010050562436884698A
:104D400024F4E04424F440740D6844EA052422F07D
:104D500020028D6842EA0512124DA84200D103E0FC
:104D6000114DA84207D100BF22F08002CD6842EA6F
:104D7000051222F040020B4DA84202D00A4DA84273
:104D800009D123F4806323F400634D6943EA85036A
:104D90008D6943EA8503436084614D6885630262DF
:104DA00030BD0000002C01400034014030B5026AE3
:104DB000056A25F4807505624368C46924F07004AF
:104DC00024F003040D682C4322F400728D6842EA3B
:104DD0000522124DA84200D103E0114DA84207D18F
:104DE00000BF22F40062CD6842EA052222F480620C
:104DF0000A4DA84202D00A4DA84209D123F480539B
:104E000023F400534D6943EA05138D6943EA051302
:104E10004360C4614D68C563026230BD002C01402F
:104E20000034014030B5036A056A25F480550562F7
:104E30004468C26922F4E04222F440720D6842EAFA
:104E4000052223F400538D6843EA0533084DA84238
:104E500002D0084DA84204D124F480444D6944EAAC
:104E600085144460C2614D680564036230BD000072
:104E7000002C01400034014030B50B461446026A54
:104E8000056A25F001050562816921F0F00141EA1A
:104E9000041122F00A021A438161026230BD30B56A
:104EA0000B461446026A056A25F010050562816901
:104EB00021F4704141EA043122F0A00242EA0312D7
:104EC0008161026230BD70B505466C6A0020E085E4
:104ED000E0842046FEF710FC70BD70B50646002544
:104EE000746A20684069C0F3C01594F84100212815
:104EF00005D125B10020E084204600F0FBF82068B1
:104F00004069C0F3801594F84200222805D125B1EC
:104F10000020E085204600F0A7F8606C40F010000B
:104F200060642046FEF7E8FB70BD70B505466C6A0C
:104F30002868006800F02000002842D1E08500BF0A
:104F400000BF21680C3151E8001F21F480702168F6
:104F50000C3141E80002002AF3D100BF00BF00BFBE
:104F60002168143151E8001F21F00100216814313B
:104F700041E80002002AF3D100BF00BF00BF216852
:104F8000143151E8001F21F040002168143141E83C
:104F90000002002AF3D100BF202084F84200206BD9
:104FA00001280ED100BF00BF21680C3151E8001F5D
:104FB00021F0100021680C3141E80002002AF3D1F1
:104FC00000BF00206063206B012804D1A18D204622
:104FD000FEF74CFB02E02046FEF790FE70BD70B578
:104FE00005466C6A01206063206B012805D1A08D05
:104FF00041082046FEF73AFB02E02046FEF77FFE1E
:1050000070BD70B505466C6A2868006800F0200025
:10501000F8B90020E08400BF00BF2168143151E8D6
:10502000001F21F080002168143141E80002002AAD
:10503000F3D100BF00BF00BF21680C3151E8001F51
:1050400041F0400021680C3141E80002002AF3D110
:1050500002E02046FEF7F4FE70BD70B50446656AB6
:105060002846FEF7EEFE70BD00BF00BF02680C329E
:1050700052E8002F22F4907102680C3242E80013CB
:10508000002BF3D100BF00BF00BF0268143252E80A
:10509000002F22F001010268143242E80013002BB5
:1050A000F3D100BF016B01290ED100BF00BF026820
:1050B0000C3252E8002F22F0100102680C3242E854
:1050C0000013002BF3D100BF202180F842100021F3
:1050D0000163704710B504462068C06820F04000A6
:1050E0002168C860202084F841002046FEF7A8FE11
:1050F000002010BD00BF00BF02680C3252E8002F34
:1051000022F0C00102680C3242E80013002BF3D1F8
:1051100000BF202180F841107047F8B5044694F88C
:105120004200222875D1A068B0F5805F0CD12069BB
:1051300050B90025A66A20684068C0F30800308096
:10514000A06A801CA06215E0A56A0026A068B0F5E0
:10515000805F03D0A06828B9206918B9206840682A
:10516000287004E02068406800F07F002870A06A82
:10517000401CA062E08D401E80B2E085002846D130
:105180002068C06820F020002168C8602068C068DE
:1051900020F480702168C8602068406920F0010018
:1051A00021684861202084F8420000206063206B61
:1051B000012826D10020206300BF00BF21680C31E8
:1051C00051E8001F21F0100021680C3141E8000275
:1051D000002AF3D100BF2068006800F010001028FA
:1051E0000AD100BF0020009020680068009020686D
:1051F0004068009000BF00BFA18D2046FEF736FA40
:1052000002E02046FEF77AFD0020F8BD01E0002014
:10521000FBE70220F9E7000070B504462168096940
:1052200021F44051E2681143226811612269A168AA
:105230001143626941EA02052168C96841F20C62C2
:10524000914329432268D1602168496921F4407162
:10525000A2691143226851612D4A2168914202D10D
:10526000FDF714FA01E0FDF701FA00EBC00101EBD4
:10527000001162689200B1FBF2F100EBC00202EB98
:10528000001263689B00B2FBF3F26423B2FBF3F2FB
:1052900002EBC20303EB0212A1EB8201322202EB0A
:1052A00001116422B1FBF2F101F0F00100EBC00248
:1052B00002EB001263689B00B2FBF3F26423B2FBC3
:1052C000F3F201EB021200EBC00101EB0011636885
:1052D0009B00B1FBF3F100EBC00303EB0013666826
:1052E000B600B3FBF6F36426B3FBF6F303EBC30699
:1052F00006EB0313A1EB8301322303EB01116423BB
:10530000B1FBF3F101F00F0111442268916070BD0F
:105310000038014077B581B0044615460298A06276
:10532000A58500206064222084F842002848E16BB3
:1053300088622848E16BC8622748E16B0863002057
:10534000E16B486302AE32682368191D2B46E06B9F
:10535000FCF72EFD00BF0020009020680068009040
:1053600020684068009000BF00BF206970B100BF96
:1053700000BF21680C3151E8001F41F480702168A2
:105380000C3141E80002002AF3D100BF00BF00BF8A
:105390002168143151E8001F41F0010021681431E7
:1053A00041E80002002AF3D100BF00BF00BF21681E
:1053B000143151E8001F41F040002168143141E8E8
:1053C0000002002AF3D100BF002004B070BD00002D
:1053D0002B4F0008DF4F0008DB4E0008014691F814
:1053E0004100212828D18868B0F5805F0BD1086979
:1053F00048B90A6A1088C0F308000B685860086A48
:10540000801C086205E00B6A581C086218780B685B
:105410005860C88C401E80B2C88458B90868C068FB
:1054200020F080000B68D8600868C06840F0400039
:105430000B68D860002070470220FCE72DE9F0419E
:1054400004460D4617469846069E34E0701C88B305
:105450002EB1FCF7CFFEA0EB0800B0422BD900BF65
:1054600000BF21680C3151E8001F21F4D070216881
:105470000C3141E80002002AF3D100BF00BF00BF99
:105480002168143151E8001F21F001002168143116
:1054900041E80002002AF3D100BF202084F8410037
:1054A00084F8420000BF002084F8400000BF0320C1
:1054B000BDE8F081FFE7206800682840A84201D1DC
:1054C000012000E00020B842C0D00020F0E700003A
:1054D00010B510480068006800F02000202814D1A2
:1054E0000D480078FF2802DB00200B4908700A48AD
:1054F00002780078401C084B1870084811184FF4C7
:105500007A7301220348FEF785FB0248FEF7F6F89E
:1055100010BD0000880700209C030020A008002088
:1055200008B500202D4908702D4800680068C0F3B8
:10553000001000284ED000BF0020009028480068CE
:1055400000680090264800684068009000BF00BFD7
:105550002348FEF78CF82248C06B00684068C0F111
:1055600014001E490870084602781E491C48FEF7C0
:1055700021FC1C4800782C2817D11A4840781228A2
:1055800013D118488078184908801648C078174900
:105590000880144800791649088012484079154956
:1055A000088010488079144908700E4800782C282B
:1055B0000BD10C484078112807D104210F48FCF783
:1055C00009FE084880780C490870142205490448EF
:1055D000FEF77EFB0248FEF791F808BDBA030020F3
:1055E000D0070020A0090020BC030020BE0300203B
:1055F000C0030020C2030020C403002000140140A7
:1056000000BFFEE70C48007820B900200B49088055
:10561000012070470848007808490988884205D168
:1056200000200549087005490880F2E70248007823
:10563000024908800220ECE79C0300209803002028
:105640002DE9F04105462C46002202211348FCF7C3
:10565000CBFD00261DE0274607F08007802F05D1EF
:10566000012211460D48FCF7BFFD04E00022012194
:105670000A48FCF7B9FD6006040E01220221074822
:10568000FCF7B2FD002202210448FCF7ADFD701CBE
:10569000C6B2082EDFDBBDE8F0810000000C01403F
:1056A00010B50446FEF7CEFB7820FFF7C9FFFEF7E2
:1056B000F5FB0020FFF7C4FFFEF7F0FB2046FFF7E5
:1056C000BFFFFEF7EBFBFEF7D5FB10BD10B50446A0
:1056D000FEF7B8FB7820FFF7B3FFFEF7DFFB4020B3
:1056E000FFF7AEFFFEF7DAFB2046FFF7A9FFFEF754
:1056F000D5FBFEF7BFFB10BD0FB4054B10B503A9DA
:10570000044A029800F08EF910BC5DF814FB00000A
:10571000016700089C0400200FB4084B10B504A9D1
:1057200002AA039800F07EF9044602A9002000F0C6
:1057300082FD204610BC5DF814FB000037620008B3
:1057400002480068C0F30220704700000CED00E042
:1057500010B5002804DB0A07130E054A135406E0AF
:105760000A07140E034A00F00F031B1FD45410BD88
:1057700000E400E018ED00E030B528B1144C031F40
:10578000002021680A4605E0084630BD9A4203D849
:1057900010465268002AF9D1002800D041680BD089
:1057A0000468A3EB0005A54204D11B681C44034612
:1057B000046002E0436000E023603AB11C68D51A3F
:1057C000A54203D115682C441C6052685A6030BD54
:1057D000A00400202DE9F04782460F4C10480D4EE2
:1057E0000E4F001B4FF0000820F007054FF0010995
:1057F00000221146504600F0BFFF002802D1306859
:1058000010B10020BDE8F0873C60C4E90058C6F83C
:105810000090EDE7A4040020F41C0020A004002068
:10582000F0240020014609B900207047C8B220B119
:10583000C8B20E4A105C401CF7E701F47F4028B163
:105840000A48C1F30722805C0930EEE701F47F00CB
:1058500028B10648C1F30742805C1130E5E70348F0
:1058600000EB116000781930DFE70000328B000890
:1058700002E008C8121F08C1002AFAD17047704719
:10588000002001E001C1121F002AFBD17047000077
:105890002DE9FF5F82B00021DDE90430020DDDF863
:1058A00040B0034318D044F61050A2F2FF324243F6
:1058B0001514119801281FD0A5EB0B00401C5FEABE
:1058C000000A4FF000064E4FDFF83891B0465046C0
:1058D00015D5CAF1000413E0119801244AA3012848
:1058E00001D16FEA0B010298119AC0E90031C0E9B9
:1058F000024206B0BDE8F09FCBF10000DFE70446AE
:105900000021404A491842EB0450CDE9001012E052
:10591000E00707D032463B4640464946FBF71BF8B6
:105920008046894632463B4610461946FBF713F837
:1059300006460F466410002CEAD1DDE90401DDE9DA
:105940000023BAF1000F06DAFBF705F842464B4692
:10595000FBF701F805E0FBF770F842464B46FBF712
:105960006CF804460E460022284BFBF753F903D887
:105970004FF0FF30014607E00022254B204631461C
:10598000FAF742FFFBF704FB102409E0002C0ADBC6
:105990000A220023FBF79CF9039B30321A55641E40
:1059A00050EA0102F2D1641C039AC4F111031444B9
:1059B000119A012A03D0012208430DD10AE00843BD
:1059C00004D000204FF0110B119072E7A3EB0B05F0
:1059D0006D1E0DE05B4504DD4FF0000205F1010591
:1059E00004E003DA4FF00002A5F10105002AECD033
:1059F00002981199C0E90231C0E9004579E7000039
:105A0000000014400000F03F300000000000F043B0
:105A10000000E03F30380A2801D201207047002002
:105A2000704700002DE9FF4F95B09B46894606461A
:105A300000250FE2252877D100242746F84A0121C6
:105A4000059400E0044316F8013F203B01FA03F0FF
:105A50001042F7D130782A2811D06FF02F03307818
:105A6000A0F13002092A16D8059A44F0020402EB8C
:105A7000820203EB42021044761C0590EFE759F8CE
:105A8000042B0592002A03DA504244F40054059096
:105A900044F00204761C30782E2816D116F8010F37
:105AA00044F004042A280DD06FF02F023078A0F1C2
:105AB0003003092B09D807EB870302EB4303C71810
:105AC000761CF3E759F8047B761C30786C280FD0ED
:105AD00006DC4C2817D068280DD06A2814D104E0C1
